{
  "_format": "hh-sol-artifact-1",
  "contractName": "Test3Facet",
  "sourceName": "contracts/tests/Test3Facet.sol",
  "abi": [
    {
      "inputs": [],
      "name": "test3Func1",
      "outputs": [
        {
          "internalType": "uint256",
          "name": "",
          "type": "uint256"
        }
      ],
      "stateMutability": "pure",
      "type": "function"
    },
    {
      "inputs": [],
      "name": "test3Func2",
      "outputs": [],
      "stateMutability": "nonpayable",
      "type": "function"
    }
  ],
  "bytecode": "0x608060405234801561001057600080fd5b5060ca8061001f6000396000f3fe6080604052348015600f57600080fd5b506004361060325760003560e01c8063e7bf600f146037578063ebfa4bcc14603f575b600080fd5b603d6059565b005b6045605b565b60405160509190607b565b60405180910390f35b565b60006001905090565b6000819050919050565b6075816064565b82525050565b6000602082019050608e6000830184606e565b9291505056fea264697066735822122023e56e5cd3a0f4cc243017303e76ff1d35a3b89806ce219a3b1b35f87550079764736f6c63430008120033",
  "linkReferences": {},
  "deployedLinkReferences": {}
}