{
  "_format": "hh-sol-artifact-1",
  "contractName": "Test3Facet2",
  "sourceName": "contracts/tests/Test3Facet2.sol",
  "abi": [
    {
      "inputs": [],
      "name": "test3Func1",
      "outputs": [
        {
          "internalType": "uint256",
          "name": "",
          "type": "uint256"
        }
      ],
      "stateMutability": "pure",
      "type": "function"
    }
  ],
  "bytecode": "0x608060405234801561001057600080fd5b5060b68061001f6000396000f3fe6080604052348015600f57600080fd5b506004361060285760003560e01c8063ebfa4bcc14602d575b600080fd5b60336047565b604051603e91906067565b60405180910390f35b60006002905090565b6000819050919050565b6061816050565b82525050565b6000602082019050607a6000830184605a565b9291505056fea2646970667358221220fa8d9015763e9ef2a558f5c9d17d2c2b72a97ce49d3f9c04b79dccd873dfd26064736f6c63430008120033",
  "linkReferences": {},
  "deployedLinkReferences": {}
}