{
  "_format": "hh-sol-artifact-1",
  "contractName": "Automate",
  "sourceName": "contracts/facets/core/Automate.sol",
  "abi": [
    {
      "inputs": [],
      "name": "depositGelatoFunds",
      "outputs": [],
      "stateMutability": "payable",
      "type": "function"
    },
    {
      "inputs": [],
      "name": "getGelatoAddresses",
      "outputs": [
        {
          "internalType": "address",
          "name": "",
          "type": "address"
        },
        {
          "internalType": "address",
          "name": "",
          "type": "address"
        },
        {
          "internalType": "address",
          "name": "",
          "type": "address"
        },
        {
          "internalType": "address",
          "name": "",
          "type": "address"
        },
        {
          "internalType": "address",
          "name": "",
          "type": "address"
        }
      ],
      "stateMutability": "view",
      "type": "function"
    },
    {
      "inputs": [],
      "name": "getMinimumAppGelatoBalance",
      "outputs": [
        {
          "internalType": "uint256",
          "name": "",
          "type": "uint256"
        }
      ],
      "stateMutability": "view",
      "type": "function"
    },
    {
      "inputs": [
        {
          "internalType": "address",
          "name": "_autobot",
          "type": "address"
        }
      ],
      "name": "setGelatoContracts",
      "outputs": [],
      "stateMutability": "nonpayable",
      "type": "function"
    },
    {
      "inputs": [
        {
          "internalType": "uint256",
          "name": "_value",
          "type": "uint256"
        }
      ],
      "name": "setMinimumAppGelatoBalance",
      "outputs": [],
      "stateMutability": "nonpayable",
      "type": "function"
    },
    {
      "inputs": [
        {
          "internalType": "uint256",
          "name": "_amount",
          "type": "uint256"
        }
      ],
      "name": "withdrawGelatoFunds",
      "outputs": [],
      "stateMutability": "nonpayable",
      "type": "function"
    }
  ],
  "bytecode": "0x608060405234801561001057600080fd5b5061114f806100206000396000f3fe6080604052600436106100555760003560e01c80631674bc241461005a5780632e4b69451461006457806371ebf6f41461008d578063a6f9223d146100b6578063bb6bd765146100df578063f24a25de1461010e575b600080fd5b610062610139565b005b34801561007057600080fd5b5061008b60048036038101906100869190610a52565b610144565b005b34801561009957600080fd5b506100b460048036038101906100af9190610add565b61017d565b005b3480156100c257600080fd5b506100dd60048036038101906100d89190610a52565b6101b6565b005b3480156100eb57600080fd5b506100f46101ef565b604051610105959493929190610b19565b60405180910390f35b34801561011a57600080fd5b50610123610210565b6040516101309190610b7b565b60405180910390f35b6101423461021f565b565b61017160405160200161015690610bf3565b604051602081830303815290604052805190602001206102d1565b61017a816102dd565b50565b6101aa60405160200161018f90610bf3565b604051602081830303815290604052805190602001206102d1565b6101b3816102f0565b50565b6101e36040516020016101c890610c5f565b604051602081830303815290604052805190602001206102d1565b6101ec816104d8565b50565b60008060008060006101ff610589565b945094509450945094509091929394565b600061021a610650565b905090565b610227610663565b60010160009054906101000a900473ffffffffffffffffffffffffffffffffffffffff1673ffffffffffffffffffffffffffffffffffffffff1663c1461d57823073eeeeeeeeeeeeeeeeeeeeeeeeeeeeeeeeeeeeeeee856040518563ffffffff1660e01b815260040161029c93929190610c7f565b6000604051808303818588803b1580156102b557600080fd5b505af11580156102c9573d6000803e3d6000fd5b505050505050565b6102da81610690565b50565b806102e6610663565b6003018190555050565b806102f9610663565b60000160006101000a81548173ffffffffffffffffffffffffffffffffffffffff021916908373ffffffffffffffffffffffffffffffffffffffff1602179055508073ffffffffffffffffffffffffffffffffffffffff1663573ea5756040518163ffffffff1660e01b8152600401602060405180830381865afa158015610385573d6000803e3d6000fd5b505050506040513d601f19601f820116820180604052508101906103a99190610cf4565b6103b1610663565b60020160006101000a81548173ffffffffffffffffffffffffffffffffffffffff021916908373ffffffffffffffffffffffffffffffffffffffff1602179055506103fa610663565b60000160009054906101000a900473ffffffffffffffffffffffffffffffffffffffff1673ffffffffffffffffffffffffffffffffffffffff1663e60a32136040518163ffffffff1660e01b8152600401602060405180830381865afa158015610468573d6000803e3d6000fd5b505050506040513d601f19601f8201168201806040525081019061048c9190610d5f565b610494610663565b60010160006101000a81548173ffffffffffffffffffffffffffffffffffffffff021916908373ffffffffffffffffffffffffffffffffffffffff16021790555050565b6104e0610663565b60010160009054906101000a900473ffffffffffffffffffffffffffffffffffffffff1673ffffffffffffffffffffffffffffffffffffffff16631c20fadd3373eeeeeeeeeeeeeeeeeeeeeeeeeeeeeeeeeeeeeeee846040518463ffffffff1660e01b815260040161055493929190610d9b565b600060405180830381600087803b15801561056e57600080fd5b505af1158015610582573d6000803e3d6000fd5b5050505050565b6000806000806000610599610663565b60000160009054906101000a900473ffffffffffffffffffffffffffffffffffffffff166105c5610663565b60010160009054906101000a900473ffffffffffffffffffffffffffffffffffffffff166105f1610663565b60020160009054906101000a900473ffffffffffffffffffffffffffffffffffffffff1673c815db16d4be6ddf2685c201937905abf338f5d773eeeeeeeeeeeeeeeeeeeeeeeeeeeeeeeeeeeeeeee945094509450945094509091929394565b600061065a610663565b60030154905090565b6000807fde06769ca6d80a022439e234eebb61c3801d652175b62f912d6f8cac7b881c6590508091505090565b61069a813361069d565b50565b6106a7828261073a565b610736576106cc8173ffffffffffffffffffffffffffffffffffffffff1660146107ae565b6106da8360001c60206107ae565b6040516020016106eb929190610edb565b6040516020818303038152906040526040517f08c379a000000000000000000000000000000000000000000000000000000000815260040161072d9190610f5f565b60405180910390fd5b5050565b60006107446109ea565b600001600084815260200190815260200160002060000160008373ffffffffffffffffffffffffffffffffffffffff1673ffffffffffffffffffffffffffffffffffffffff16815260200190815260200160002060009054906101000a900460ff16905092915050565b6060600060028360026107c19190610fb0565b6107cb9190610ff2565b67ffffffffffffffff8111156107e4576107e3611026565b5b6040519080825280601f01601f1916602001820160405280156108165781602001600182028036833780820191505090505b5090507f30000000000000000000000000000000000000000000000000000000000000008160008151811061084e5761084d611055565b5b60200101907effffffffffffffffffffffffffffffffffffffffffffffffffffffffffffff1916908160001a9053507f7800000000000000000000000000000000000000000000000000000000000000816001815181106108b2576108b1611055565b5b60200101907effffffffffffffffffffffffffffffffffffffffffffffffffffffffffffff1916908160001a905350600060018460026108f29190610fb0565b6108fc9190610ff2565b90505b600181111561099c577f3031323334353637383961626364656600000000000000000000000000000000600f86166010811061093e5761093d611055565b5b1a60f81b82828151811061095557610954611055565b5b60200101907effffffffffffffffffffffffffffffffffffffffffffffffffffffffffffff1916908160001a905350600485901c94508061099590611084565b90506108ff565b50600084146109e0576040517f08c379a00000000000000000000000000000000000000000000000000000000081526004016109d7906110f9565b60405180910390fd5b8091505092915050565b6000807f4cd15452b25e815d3f9d1a3c7edd985a178edf5eb3461a1acbf855517423d69490508091505090565b600080fd5b6000819050919050565b610a2f81610a1c565b8114610a3a57600080fd5b50565b600081359050610a4c81610a26565b92915050565b600060208284031215610a6857610a67610a17565b5b6000610a7684828501610a3d565b91505092915050565b600073ffffffffffffffffffffffffffffffffffffffff82169050919050565b6000610aaa82610a7f565b9050919050565b610aba81610a9f565b8114610ac557600080fd5b50565b600081359050610ad781610ab1565b92915050565b600060208284031215610af357610af2610a17565b5b6000610b0184828501610ac8565b91505092915050565b610b1381610a9f565b82525050565b600060a082019050610b2e6000830188610b0a565b610b3b6020830187610b0a565b610b486040830186610b0a565b610b556060830185610b0a565b610b626080830184610b0a565b9695505050505050565b610b7581610a1c565b82525050565b6000602082019050610b906000830184610b6c565b92915050565b600082825260208201905092915050565b7f535452415445474953545f524f4c450000000000000000000000000000000000600082015250565b6000610bdd600f83610b96565b9150610be882610ba7565b602082019050919050565b60006020820190508181036000830152610c0c81610bd0565b9050919050565b7f5452454153555245525f524f4c45000000000000000000000000000000000000600082015250565b6000610c49600e83610b96565b9150610c5482610c13565b602082019050919050565b60006020820190508181036000830152610c7881610c3c565b9050919050565b6000606082019050610c946000830186610b0a565b610ca16020830185610b0a565b610cae6040830184610b6c565b949350505050565b6000610cc182610a7f565b9050919050565b610cd181610cb6565b8114610cdc57600080fd5b50565b600081519050610cee81610cc8565b92915050565b600060208284031215610d0a57610d09610a17565b5b6000610d1884828501610cdf565b91505092915050565b6000610d2c82610a9f565b9050919050565b610d3c81610d21565b8114610d4757600080fd5b50565b600081519050610d5981610d33565b92915050565b600060208284031215610d7557610d74610a17565b5b6000610d8384828501610d4a565b91505092915050565b610d9581610cb6565b82525050565b6000606082019050610db06000830186610d8c565b610dbd6020830185610b0a565b610dca6040830184610b6c565b949350505050565b600081905092915050565b7f416363657373436f6e74726f6c3a206163636f756e7420000000000000000000600082015250565b6000610e13601783610dd2565b9150610e1e82610ddd565b601782019050919050565b600081519050919050565b60005b83811015610e52578082015181840152602081019050610e37565b60008484015250505050565b6000610e6982610e29565b610e738185610dd2565b9350610e83818560208601610e34565b80840191505092915050565b7f206973206d697373696e6720726f6c6520000000000000000000000000000000600082015250565b6000610ec5601183610dd2565b9150610ed082610e8f565b601182019050919050565b6000610ee682610e06565b9150610ef28285610e5e565b9150610efd82610eb8565b9150610f098284610e5e565b91508190509392505050565b6000601f19601f8301169050919050565b6000610f3182610e29565b610f3b8185610b96565b9350610f4b818560208601610e34565b610f5481610f15565b840191505092915050565b60006020820190508181036000830152610f798184610f26565b905092915050565b7f4e487b7100000000000000000000000000000000000000000000000000000000600052601160045260246000fd5b6000610fbb82610a1c565b9150610fc683610a1c565b9250828202610fd481610a1c565b91508282048414831517610feb57610fea610f81565b5b5092915050565b6000610ffd82610a1c565b915061100883610a1c565b92508282019050808211156110205761101f610f81565b5b92915050565b7f4e487b7100000000000000000000000000000000000000000000000000000000600052604160045260246000fd5b7f4e487b7100000000000000000000000000000000000000000000000000000000600052603260045260246000fd5b600061108f82610a1c565b9150600082036110a2576110a1610f81565b5b600182039050919050565b7f537472696e67733a20686578206c656e67746820696e73756666696369656e74600082015250565b60006110e3602083610b96565b91506110ee826110ad565b602082019050919050565b60006020820190508181036000830152611112816110d6565b905091905056fea2646970667358221220a8e3bdc4351e1596162105b3ee5523910e922fd558df7c9a6af4ab9af898ea5b64736f6c63430008120033",
  "linkReferences": {},
  "deployedLinkReferences": {}
}