{
  "_format": "hh-sol-artifact-1",
  "contractName": "Utility",
  "sourceName": "contracts/facets/utils/Utility.sol",
  "abi": [
    {
      "inputs": [],
      "name": "FailedWithdrawNativeToken",
      "type": "error"
    },
    {
      "inputs": [],
      "name": "getNativeBalance",
      "outputs": [
        {
          "internalType": "uint256",
          "name": "",
          "type": "uint256"
        }
      ],
      "stateMutability": "view",
      "type": "function"
    },
    {
      "inputs": [
        {
          "internalType": "uint256",
          "name": "_amount",
          "type": "uint256"
        }
      ],
      "name": "withdrawNativeBalance",
      "outputs": [],
      "stateMutability": "nonpayable",
      "type": "function"
    }
  ],
  "bytecode": "0x608060405234801561001057600080fd5b506001600081905550610a8b806100286000396000f3fe608060405234801561001057600080fd5b50600436106100365760003560e01c806388a9d5541461003b578063c9a463e214610059575b600080fd5b610043610075565b6040516100509190610566565b60405180910390f35b610073600480360381019061006e91906105b2565b61007d565b005b600047905090565b610085610161565b6100b26040516020016100979061063c565b604051602081830303815290604052805190602001206101b0565b60003373ffffffffffffffffffffffffffffffffffffffff16826040516100d89061068d565b60006040518083038185875af1925050503d8060008114610115576040519150601f19603f3d011682016040523d82523d6000602084013e61011a565b606091505b5050905080610155576040517fe6e2afc700000000000000000000000000000000000000000000000000000000815260040160405180910390fd5b5061015e6101bc565b50565b6002600054036101a6576040517f08c379a000000000000000000000000000000000000000000000000000000000815260040161019d906106ee565b60405180910390fd5b6002600081905550565b6101b9816101c6565b50565b6001600081905550565b6101d081336101d3565b50565b6101dd8282610270565b61026c576102028173ffffffffffffffffffffffffffffffffffffffff1660146102e4565b6102108360001c60206102e4565b604051602001610221929190610817565b6040516020818303038152906040526040517f08c379a0000000000000000000000000000000000000000000000000000000008152600401610263919061089b565b60405180910390fd5b5050565b600061027a610520565b600001600084815260200190815260200160002060000160008373ffffffffffffffffffffffffffffffffffffffff1673ffffffffffffffffffffffffffffffffffffffff16815260200190815260200160002060009054906101000a900460ff16905092915050565b6060600060028360026102f791906108ec565b610301919061092e565b67ffffffffffffffff81111561031a57610319610962565b5b6040519080825280601f01601f19166020018201604052801561034c5781602001600182028036833780820191505090505b5090507f30000000000000000000000000000000000000000000000000000000000000008160008151811061038457610383610991565b5b60200101907effffffffffffffffffffffffffffffffffffffffffffffffffffffffffffff1916908160001a9053507f7800000000000000000000000000000000000000000000000000000000000000816001815181106103e8576103e7610991565b5b60200101907effffffffffffffffffffffffffffffffffffffffffffffffffffffffffffff1916908160001a9053506000600184600261042891906108ec565b610432919061092e565b90505b60018111156104d2577f3031323334353637383961626364656600000000000000000000000000000000600f86166010811061047457610473610991565b5b1a60f81b82828151811061048b5761048a610991565b5b60200101907effffffffffffffffffffffffffffffffffffffffffffffffffffffffffffff1916908160001a905350600485901c9450806104cb906109c0565b9050610435565b5060008414610516576040517f08c379a000000000000000000000000000000000000000000000000000000000815260040161050d90610a35565b60405180910390fd5b8091505092915050565b6000807f4cd15452b25e815d3f9d1a3c7edd985a178edf5eb3461a1acbf855517423d69490508091505090565b6000819050919050565b6105608161054d565b82525050565b600060208201905061057b6000830184610557565b92915050565b600080fd5b61058f8161054d565b811461059a57600080fd5b50565b6000813590506105ac81610586565b92915050565b6000602082840312156105c8576105c7610581565b5b60006105d68482850161059d565b91505092915050565b600082825260208201905092915050565b7f5452454153555245525f524f4c45000000000000000000000000000000000000600082015250565b6000610626600e836105df565b9150610631826105f0565b602082019050919050565b6000602082019050818103600083015261065581610619565b9050919050565b600081905092915050565b50565b600061067760008361065c565b915061068282610667565b600082019050919050565b60006106988261066a565b9150819050919050565b7f5265656e7472616e637947756172643a207265656e7472616e742063616c6c00600082015250565b60006106d8601f836105df565b91506106e3826106a2565b602082019050919050565b60006020820190508181036000830152610707816106cb565b9050919050565b600081905092915050565b7f416363657373436f6e74726f6c3a206163636f756e7420000000000000000000600082015250565b600061074f60178361070e565b915061075a82610719565b601782019050919050565b600081519050919050565b60005b8381101561078e578082015181840152602081019050610773565b60008484015250505050565b60006107a582610765565b6107af818561070e565b93506107bf818560208601610770565b80840191505092915050565b7f206973206d697373696e6720726f6c6520000000000000000000000000000000600082015250565b600061080160118361070e565b915061080c826107cb565b601182019050919050565b600061082282610742565b915061082e828561079a565b9150610839826107f4565b9150610845828461079a565b91508190509392505050565b6000601f19601f8301169050919050565b600061086d82610765565b61087781856105df565b9350610887818560208601610770565b61089081610851565b840191505092915050565b600060208201905081810360008301526108b58184610862565b905092915050565b7f4e487b7100000000000000000000000000000000000000000000000000000000600052601160045260246000fd5b60006108f78261054d565b91506109028361054d565b92508282026109108161054d565b91508282048414831517610927576109266108bd565b5b5092915050565b60006109398261054d565b91506109448361054d565b925082820190508082111561095c5761095b6108bd565b5b92915050565b7f4e487b7100000000000000000000000000000000000000000000000000000000600052604160045260246000fd5b7f4e487b7100000000000000000000000000000000000000000000000000000000600052603260045260246000fd5b60006109cb8261054d565b9150600082036109de576109dd6108bd565b5b600182039050919050565b7f537472696e67733a20686578206c656e67746820696e73756666696369656e74600082015250565b6000610a1f6020836105df565b9150610a2a826109e9565b602082019050919050565b60006020820190508181036000830152610a4e81610a12565b905091905056fea2646970667358221220bcbd07bd1e012cedbca3fe8d3feeefd34ac7bf87c5b76c51b796aaaab2c13db064736f6c63430008120033",
  "linkReferences": {},
  "deployedLinkReferences": {}
}