{
  "_format": "hh-sol-artifact-1",
  "contractName": "DiamondInit",
  "sourceName": "contracts/upgrades/DiamondInit.sol",
  "abi": [
    {
      "inputs": [
        {
          "internalType": "address",
          "name": "_autobot",
          "type": "address"
        },
        {
          "internalType": "uint256",
          "name": "_minimumAppGelatoBalance",
          "type": "uint256"
        },
        {
          "internalType": "uint256",
          "name": "_minimumEndDuration",
          "type": "uint256"
        },
        {
          "internalType": "uint256",
          "name": "_minimumLifespan",
          "type": "uint256"
        },
        {
          "internalType": "uint256",
          "name": "_stBufferDurationInSecond",
          "type": "uint256"
        },
        {
          "internalType": "address[]",
          "name": "_superTokens",
          "type": "address[]"
        }
      ],
      "name": "init",
      "outputs": [],
      "stateMutability": "nonpayable",
      "type": "function"
    }
  ],
  "bytecode": "0x608060405234801561001057600080fd5b50610d38806100206000396000f3fe608060405234801561001057600080fd5b506004361061002b5760003560e01c80630629b93814610030575b600080fd5b61004a60048036038101906100459190610add565b61004c565b005b60006100566105bd565b905060018160030160007f01ffc9a7000000000000000000000000000000000000000000000000000000007bffffffffffffffffffffffffffffffffffffffffffffffffffffffff19167bffffffffffffffffffffffffffffffffffffffffffffffffffffffff1916815260200190815260200160002060006101000a81548160ff02191690831515021790555060018160030160007f1f931c1c000000000000000000000000000000000000000000000000000000007bffffffffffffffffffffffffffffffffffffffffffffffffffffffff19167bffffffffffffffffffffffffffffffffffffffffffffffffffffffff1916815260200190815260200160002060006101000a81548160ff02191690831515021790555060018160030160007f48e2b093000000000000000000000000000000000000000000000000000000007bffffffffffffffffffffffffffffffffffffffffffffffffffffffff19167bffffffffffffffffffffffffffffffffffffffffffffffffffffffff1916815260200190815260200160002060006101000a81548160ff02191690831515021790555060018160030160007ff8b33b26000000000000000000000000000000000000000000000000000000007bffffffffffffffffffffffffffffffffffffffffffffffffffffffff19167bffffffffffffffffffffffffffffffffffffffffffffffffffffffff1916815260200190815260200160002060006101000a81548160ff02191690831515021790555060018160030160007f410db6b6000000000000000000000000000000000000000000000000000000007bffffffffffffffffffffffffffffffffffffffffffffffffffffffff19167bffffffffffffffffffffffffffffffffffffffffffffffffffffffff1916815260200190815260200160002060006101000a81548160ff02191690831515021790555060018160030160007fa60cf313000000000000000000000000000000000000000000000000000000007bffffffffffffffffffffffffffffffffffffffffffffffffffffffff19167bffffffffffffffffffffffffffffffffffffffffffffffffffffffff1916815260200190815260200160002060006101000a81548160ff02191690831515021790555060018160030160007fb5879a4b000000000000000000000000000000000000000000000000000000007bffffffffffffffffffffffffffffffffffffffffffffffffffffffff19167bffffffffffffffffffffffffffffffffffffffffffffffffffffffff1916815260200190815260200160002060006101000a81548160ff02191690831515021790555060018160030160007fed5e69e2000000000000000000000000000000000000000000000000000000007bffffffffffffffffffffffffffffffffffffffffffffffffffffffff19167bffffffffffffffffffffffffffffffffffffffffffffffffffffffff1916815260200190815260200160002060006101000a81548160ff02191690831515021790555060018160030160007f5e1208a1000000000000000000000000000000000000000000000000000000007bffffffffffffffffffffffffffffffffffffffffffffffffffffffff19167bffffffffffffffffffffffffffffffffffffffffffffffffffffffff1916815260200190815260200160002060006101000a81548160ff02191690831515021790555061054d876105ea565b610556866107d2565b61055f856107e5565b610568846107f8565b6105718361080b565b60005b82518110156105b3576105a083828151811061059357610592610b86565b5b602002602001015161081e565b80806105ab90610be4565b915050610574565b5050505050505050565b6000807fc8fcad8db84d3cc18b4c41d551ea0ee66dd599cde068d998e57d5e09332c131c90508091505090565b806105f3610882565b60000160006101000a81548173ffffffffffffffffffffffffffffffffffffffff021916908373ffffffffffffffffffffffffffffffffffffffff1602179055508073ffffffffffffffffffffffffffffffffffffffff1663573ea5756040518163ffffffff1660e01b8152600401602060405180830381865afa15801561067f573d6000803e3d6000fd5b505050506040513d601f19601f820116820180604052508101906106a39190610c6a565b6106ab610882565b60020160006101000a81548173ffffffffffffffffffffffffffffffffffffffff021916908373ffffffffffffffffffffffffffffffffffffffff1602179055506106f4610882565b60000160009054906101000a900473ffffffffffffffffffffffffffffffffffffffff1673ffffffffffffffffffffffffffffffffffffffff1663e60a32136040518163ffffffff1660e01b8152600401602060405180830381865afa158015610762573d6000803e3d6000fd5b505050506040513d601f19601f820116820180604052508101906107869190610cd5565b61078e610882565b60010160006101000a81548173ffffffffffffffffffffffffffffffffffffffff021916908373ffffffffffffffffffffffffffffffffffffffff16021790555050565b806107db610882565b6003018190555050565b806107ee6108af565b6006018190555050565b806108016108af565b6007018190555050565b806108146108af565b6008018190555050565b60016108286108af565b60090160008373ffffffffffffffffffffffffffffffffffffffff1673ffffffffffffffffffffffffffffffffffffffff16815260200190815260200160002060006101000a81548160ff02191690831515021790555050565b6000807fde06769ca6d80a022439e234eebb61c3801d652175b62f912d6f8cac7b881c6590508091505090565b6000807f2f7ed27098ecefe70183ee38ae4542dee65215b0786f6870871034402cfe2cc990508091505090565b6000604051905090565b600080fd5b600080fd5b600073ffffffffffffffffffffffffffffffffffffffff82169050919050565b600061091b826108f0565b9050919050565b61092b81610910565b811461093657600080fd5b50565b60008135905061094881610922565b92915050565b6000819050919050565b6109618161094e565b811461096c57600080fd5b50565b60008135905061097e81610958565b92915050565b600080fd5b6000601f19601f8301169050919050565b7f4e487b7100000000000000000000000000000000000000000000000000000000600052604160045260246000fd5b6109d282610989565b810181811067ffffffffffffffff821117156109f1576109f061099a565b5b80604052505050565b6000610a046108dc565b9050610a1082826109c9565b919050565b600067ffffffffffffffff821115610a3057610a2f61099a565b5b602082029050602081019050919050565b600080fd5b6000610a59610a5484610a15565b6109fa565b90508083825260208201905060208402830185811115610a7c57610a7b610a41565b5b835b81811015610aa55780610a918882610939565b845260208401935050602081019050610a7e565b5050509392505050565b600082601f830112610ac457610ac3610984565b5b8135610ad4848260208601610a46565b91505092915050565b60008060008060008060c08789031215610afa57610af96108e6565b5b6000610b0889828a01610939565b9650506020610b1989828a0161096f565b9550506040610b2a89828a0161096f565b9450506060610b3b89828a0161096f565b9350506080610b4c89828a0161096f565b92505060a087013567ffffffffffffffff811115610b6d57610b6c6108eb565b5b610b7989828a01610aaf565b9150509295509295509295565b7f4e487b7100000000000000000000000000000000000000000000000000000000600052603260045260246000fd5b7f4e487b7100000000000000000000000000000000000000000000000000000000600052601160045260246000fd5b6000610bef8261094e565b91507fffffffffffffffffffffffffffffffffffffffffffffffffffffffffffffffff8203610c2157610c20610bb5565b5b600182019050919050565b6000610c37826108f0565b9050919050565b610c4781610c2c565b8114610c5257600080fd5b50565b600081519050610c6481610c3e565b92915050565b600060208284031215610c8057610c7f6108e6565b5b6000610c8e84828501610c55565b91505092915050565b6000610ca282610910565b9050919050565b610cb281610c97565b8114610cbd57600080fd5b50565b600081519050610ccf81610ca9565b92915050565b600060208284031215610ceb57610cea6108e6565b5b6000610cf984828501610cc0565b9150509291505056fea2646970667358221220b59264387b3241f6799040ab0630b31d2979d26e4f53f747c3046a0b0bdf879864736f6c63430008120033",
  "linkReferences": {},
  "deployedLinkReferences": {}
}