{
  "_format": "hh-sol-artifact-1",
  "contractName": "Test4Facet",
  "sourceName": "contracts/tests/Test4Facet.sol",
  "abi": [
    {
      "inputs": [],
      "name": "test4Func1",
      "outputs": [],
      "stateMutability": "nonpayable",
      "type": "function"
    },
    {
      "inputs": [],
      "name": "test4Func2",
      "outputs": [],
      "stateMutability": "nonpayable",
      "type": "function"
    }
  ],
  "bytecode": "0x6080604052348015600f57600080fd5b5060818061001e6000396000f3fe6080604052348015600f57600080fd5b506004361060325760003560e01c806339fcc3fd14603757806383e1265214603f575b600080fd5b603d6047565b005b60456049565b005b565b56fea264697066735822122081fdc27a4d2eb955d894ad6f4158e570fdb7ee2bf9f648a3b627e2f0e2f30a5364736f6c63430008120033",
  "linkReferences": {},
  "deployedLinkReferences": {}
}