{
  "_format": "hh-sol-artifact-1",
  "contractName": "Control",
  "sourceName": "contracts/facets/core/Control.sol",
  "abi": [
    {
      "inputs": [],
      "name": "ArrayLengthNotMatch",
      "type": "error"
    },
    {
      "inputs": [],
      "name": "ContractError",
      "type": "error"
    },
    {
      "inputs": [],
      "name": "InsufficientAssets",
      "type": "error"
    },
    {
      "inputs": [],
      "name": "InsufficientFeeBalance",
      "type": "error"
    },
    {
      "inputs": [],
      "name": "InvalidBasisPoints",
      "type": "error"
    },
    {
      "inputs": [],
      "name": "InvalidFlowRateBounds",
      "type": "error"
    },
    {
      "inputs": [],
      "name": "InvalidSuperToken",
      "type": "error"
    },
    {
      "inputs": [],
      "name": "ZeroValue",
      "type": "error"
    },
    {
      "inputs": [
        {
          "internalType": "address",
          "name": "_superToken",
          "type": "address"
        }
      ],
      "name": "addSuperToken",
      "outputs": [],
      "stateMutability": "nonpayable",
      "type": "function"
    },
    {
      "inputs": [],
      "name": "clearBPS",
      "outputs": [],
      "stateMutability": "nonpayable",
      "type": "function"
    },
    {
      "inputs": [
        {
          "internalType": "address",
          "name": "_superToken",
          "type": "address"
        },
        {
          "internalType": "uint256",
          "name": "_amount",
          "type": "uint256"
        }
      ],
      "name": "depositAsset",
      "outputs": [],
      "stateMutability": "nonpayable",
      "type": "function"
    },
    {
      "inputs": [
        {
          "internalType": "address",
          "name": "_superToken",
          "type": "address"
        }
      ],
      "name": "getAssetTotal",
      "outputs": [
        {
          "internalType": "uint256",
          "name": "",
          "type": "uint256"
        }
      ],
      "stateMutability": "view",
      "type": "function"
    },
    {
      "inputs": [
        {
          "internalType": "address",
          "name": "_user",
          "type": "address"
        },
        {
          "internalType": "address",
          "name": "_superToken",
          "type": "address"
        }
      ],
      "name": "getAssetUser",
      "outputs": [
        {
          "internalType": "uint256",
          "name": "",
          "type": "uint256"
        }
      ],
      "stateMutability": "view",
      "type": "function"
    },
    {
      "inputs": [
        {
          "internalType": "uint256",
          "name": "_tag",
          "type": "uint256"
        }
      ],
      "name": "getBPSData",
      "outputs": [
        {
          "internalType": "uint16",
          "name": "",
          "type": "uint16"
        },
        {
          "internalType": "uint96",
          "name": "",
          "type": "uint96"
        },
        {
          "internalType": "uint96",
          "name": "",
          "type": "uint96"
        }
      ],
      "stateMutability": "view",
      "type": "function"
    },
    {
      "inputs": [],
      "name": "getBPSSize",
      "outputs": [
        {
          "internalType": "uint256",
          "name": "",
          "type": "uint256"
        }
      ],
      "stateMutability": "view",
      "type": "function"
    },
    {
      "inputs": [
        {
          "internalType": "address",
          "name": "_superToken",
          "type": "address"
        },
        {
          "internalType": "uint256",
          "name": "_nonce",
          "type": "uint256"
        }
      ],
      "name": "getControlData",
      "outputs": [
        {
          "internalType": "address",
          "name": "",
          "type": "address"
        },
        {
          "internalType": "uint256",
          "name": "",
          "type": "uint256"
        },
        {
          "internalType": "uint256",
          "name": "",
          "type": "uint256"
        },
        {
          "internalType": "uint256",
          "name": "",
          "type": "uint256"
        }
      ],
      "stateMutability": "view",
      "type": "function"
    },
    {
      "inputs": [
        {
          "internalType": "address",
          "name": "_superToken",
          "type": "address"
        }
      ],
      "name": "getFeeBalance",
      "outputs": [
        {
          "internalType": "uint256",
          "name": "",
          "type": "uint256"
        }
      ],
      "stateMutability": "view",
      "type": "function"
    },
    {
      "inputs": [],
      "name": "getMinimumEndDuration",
      "outputs": [
        {
          "internalType": "uint256",
          "name": "",
          "type": "uint256"
        }
      ],
      "stateMutability": "view",
      "type": "function"
    },
    {
      "inputs": [],
      "name": "getMinimumLifespan",
      "outputs": [
        {
          "internalType": "uint256",
          "name": "",
          "type": "uint256"
        }
      ],
      "stateMutability": "view",
      "type": "function"
    },
    {
      "inputs": [
        {
          "internalType": "address",
          "name": "_superToken",
          "type": "address"
        },
        {
          "internalType": "int96",
          "name": "_newFlowRate",
          "type": "int96"
        }
      ],
      "name": "getNewBufferedAppBalance",
      "outputs": [
        {
          "internalType": "uint256",
          "name": "",
          "type": "uint256"
        }
      ],
      "stateMutability": "view",
      "type": "function"
    },
    {
      "inputs": [
        {
          "internalType": "address",
          "name": "_superToken",
          "type": "address"
        }
      ],
      "name": "getNewControlNonce",
      "outputs": [
        {
          "internalType": "uint256",
          "name": "",
          "type": "uint256"
        }
      ],
      "stateMutability": "view",
      "type": "function"
    },
    {
      "inputs": [
        {
          "internalType": "address",
          "name": "_user",
          "type": "address"
        }
      ],
      "name": "getSBPS",
      "outputs": [
        {
          "internalType": "uint16",
          "name": "",
          "type": "uint16"
        }
      ],
      "stateMutability": "view",
      "type": "function"
    },
    {
      "inputs": [],
      "name": "getSTBufferDurationInSecond",
      "outputs": [
        {
          "internalType": "uint256",
          "name": "",
          "type": "uint256"
        }
      ],
      "stateMutability": "view",
      "type": "function"
    },
    {
      "inputs": [],
      "name": "isBPSEnabled",
      "outputs": [
        {
          "internalType": "bool",
          "name": "",
          "type": "bool"
        }
      ],
      "stateMutability": "view",
      "type": "function"
    },
    {
      "inputs": [
        {
          "internalType": "address",
          "name": "_superToken",
          "type": "address"
        },
        {
          "internalType": "int96",
          "name": "_newFlowRate",
          "type": "int96"
        }
      ],
      "name": "isNewFlowRateAllowed",
      "outputs": [
        {
          "internalType": "bool",
          "name": "",
          "type": "bool"
        }
      ],
      "stateMutability": "view",
      "type": "function"
    },
    {
      "inputs": [
        {
          "internalType": "address",
          "name": "_superToken",
          "type": "address"
        }
      ],
      "name": "isSuperTokensSupported",
      "outputs": [
        {
          "internalType": "bool",
          "name": "",
          "type": "bool"
        }
      ],
      "stateMutability": "view",
      "type": "function"
    },
    {
      "inputs": [
        {
          "internalType": "uint256",
          "name": "count",
          "type": "uint256"
        },
        {
          "internalType": "address",
          "name": "_superToken",
          "type": "address"
        }
      ],
      "name": "realizeFeeBalance",
      "outputs": [],
      "stateMutability": "nonpayable",
      "type": "function"
    },
    {
      "inputs": [
        {
          "internalType": "address",
          "name": "_superToken",
          "type": "address"
        }
      ],
      "name": "removeSuperToken",
      "outputs": [],
      "stateMutability": "nonpayable",
      "type": "function"
    },
    {
      "inputs": [
        {
          "internalType": "uint16[]",
          "name": "_bpss",
          "type": "uint16[]"
        },
        {
          "internalType": "uint96[]",
          "name": "_flowRateLowerBounds",
          "type": "uint96[]"
        },
        {
          "internalType": "uint96[]",
          "name": "_flowRateUpperBounds",
          "type": "uint96[]"
        },
        {
          "internalType": "uint256[]",
          "name": "_tags",
          "type": "uint256[]"
        }
      ],
      "name": "setBPS",
      "outputs": [],
      "stateMutability": "nonpayable",
      "type": "function"
    },
    {
      "inputs": [
        {
          "internalType": "uint256",
          "name": "_duration",
          "type": "uint256"
        }
      ],
      "name": "setMinimumEndDuration",
      "outputs": [],
      "stateMutability": "nonpayable",
      "type": "function"
    },
    {
      "inputs": [
        {
          "internalType": "uint256",
          "name": "_duration",
          "type": "uint256"
        }
      ],
      "name": "setMinimumLifespan",
      "outputs": [],
      "stateMutability": "nonpayable",
      "type": "function"
    },
    {
      "inputs": [
        {
          "internalType": "uint16",
          "name": "_bps",
          "type": "uint16"
        },
        {
          "internalType": "address",
          "name": "_user",
          "type": "address"
        }
      ],
      "name": "setSBPS",
      "outputs": [],
      "stateMutability": "nonpayable",
      "type": "function"
    },
    {
      "inputs": [
        {
          "internalType": "uint256",
          "name": "_duration",
          "type": "uint256"
        }
      ],
      "name": "setSTBufferAmount",
      "outputs": [],
      "stateMutability": "nonpayable",
      "type": "function"
    },
    {
      "inputs": [],
      "name": "toggleBPS",
      "outputs": [],
      "stateMutability": "nonpayable",
      "type": "function"
    },
    {
      "inputs": [
        {
          "internalType": "address",
          "name": "_superToken",
          "type": "address"
        },
        {
          "internalType": "uint256",
          "name": "_amount",
          "type": "uint256"
        }
      ],
      "name": "withdrawAsset",
      "outputs": [],
      "stateMutability": "nonpayable",
      "type": "function"
    },
    {
      "inputs": [
        {
          "internalType": "address",
          "name": "_superToken",
          "type": "address"
        },
        {
          "internalType": "uint256",
          "name": "_amount",
          "type": "uint256"
        }
      ],
      "name": "withdrawFeeBalance",
      "outputs": [],
      "stateMutability": "nonpayable",
      "type": "function"
    }
  ],
  "bytecode": "0x608060405234801561001057600080fd5b50613d17806100206000396000f3fe608060405234801561001057600080fd5b50600436106101c45760003560e01c80637f69bcaf116100f9578063be83574711610097578063ca70e1d511610071578063ca70e1d51461051a578063cb857c8014610538578063d99d3b6914610554578063ebaae66114610570576101c4565b8063be8357471461048a578063c467cddc146104ba578063c78f6803146104ea576101c4565b8063a8771ab9116100d3578063a8771ab9146103f0578063acff47441461040e578063adefe35e1461043e578063b24190831461045a576101c4565b80637f69bcaf1461038657806383807889146103b6578063a86c8c7c146103d2576101c4565b80634ee43e46116101665780636ab1c734116101405780636ab1c73414610322578063703ab1b714610354578063795e34251461035e5780637ea195ad14610368576101c4565b80634ee43e46146102b8578063578dc59a146102e85780636812a17314610304576101c4565b8063245b6c93116101a2578063245b6c931461024857806338e4f0641461026457806346a5d04314610280578063487eb9391461029c576101c4565b80630b72660d146101c957806322c3a21f146101fc5780632357f2cf14610218575b600080fd5b6101e360048036038101906101de9190612d16565b61058c565b6040516101f39493929190612d74565b60405180910390f35b61021660048036038101906102119190612db9565b6105ad565b005b610232600480360381019061022d9190612db9565b6105e6565b60405161023f9190612e03565b60405180910390f35b610262600480360381019061025d9190612e1e565b6105f8565b005b61027e60048036038101906102799190612d16565b61063a565b005b61029a60048036038101906102959190612d16565b610648565b005b6102b660048036038101906102b19190612e1e565b61065f565b005b6102d260048036038101906102cd9190612e84565b6106a1565b6040516102df9190612ec4565b60405180910390f35b61030260048036038101906102fd9190612e1e565b6106b5565b005b61030c6106f7565b6040516103199190612ec4565b60405180910390f35b61033c60048036038101906103379190612e1e565b610706565b60405161034b93929190612f06565b60405180910390f35b61035c610721565b005b610366610758565b005b61037061078f565b60405161037d9190612ec4565b60405180910390f35b6103a0600480360381019061039b9190612db9565b61079e565b6040516103ad9190612ec4565b60405180910390f35b6103d060048036038101906103cb9190612db9565b6107b0565b005b6103da6107e9565b6040516103e79190612f58565b60405180910390f35b6103f86107f8565b6040516104059190612ec4565b60405180910390f35b61042860048036038101906104239190612db9565b610807565b6040516104359190612f58565b60405180910390f35b61045860048036038101906104539190612f73565b610819565b005b610474600480360381019061046f9190612db9565b610827565b6040516104819190612ec4565b60405180910390f35b6104a4600480360381019061049f9190612fb3565b610839565b6040516104b19190612ec4565b60405180910390f35b6104d460048036038101906104cf9190612e84565b61084d565b6040516104e19190612f58565b60405180910390f35b61050460048036038101906104ff9190612db9565b610861565b6040516105119190612ec4565b60405180910390f35b610522610873565b60405161052f9190612ec4565b60405180910390f35b610552600480360381019061054d919061332a565b610882565b005b61056e60048036038101906105699190613401565b610a4b565b005b61058a60048036038101906105859190612d16565b610a86565b005b60008060008061059c8686610ac1565b935093509350935092959194509250565b6105da6040516020016105bf9061349e565b60405160208183030381529060405280519060200120610c84565b6105e381610c90565b50565b60006105f182610cf4565b9050919050565b61062560405160200161060a9061349e565b60405160208183030381529060405280519060200120610c84565b61062e81610d54565b61063781610d91565b50565b6106448282610da4565b5050565b61065182610fe1565b61065b8282611023565b5050565b61068c6040516020016106719061349e565b60405160208183030381529060405280519060200120610c84565b61069581610d54565b61069e816111a3565b50565b60006106ad83836111b6565b905092915050565b6106e26040516020016106c79061349e565b60405160208183030381529060405280519060200120610c84565b6106eb81610d54565b6106f48161125c565b50565b600061070161126f565b905090565b600080600061071484611282565b9250925092509193909250565b61074e6040516020016107339061349e565b60405160208183030381529060405280519060200120610c84565b6107566112c4565b565b61078560405160200161076a9061349e565b60405160208183030381529060405280519060200120610c84565b61078d611302565b565b6000610799611382565b905090565b60006107a982611395565b9050919050565b6107dd6040516020016107c29061349e565b60405160208183030381529060405280519060200120610c84565b6107e6816113e7565b50565b60006107f3611442565b905090565b6000610802611462565b905090565b60006108128261147c565b9050919050565b61082382826114db565b5050565b600061083282611549565b9050919050565b6000610845838361159b565b905092915050565b6000610859838361162b565b905092915050565b600061086c826116bf565b9050919050565b600061087d611711565b905090565b6108af6040516020016108949061349e565b60405160208183030381529060405280519060200120610c84565b825184511415806108c257508151845114155b806108cf57508051845114155b15610906576040517fed882f7100000000000000000000000000000000000000000000000000000000815260040160405180910390fd5b60005b8451811015610a44576001855161092091906134ed565b8110156109bd57836001826109359190613521565b8151811061094657610945613555565b5b60200260200101516bffffffffffffffffffffffff1683828151811061096f5761096e613555565b5b60200260200101516bffffffffffffffffffffffff16146109bc576040517f2245023300000000000000000000000000000000000000000000000000000000815260040160405180910390fd5b5b610a318582815181106109d3576109d2613555565b5b60200260200101518583815181106109ee576109ed613555565b5b6020026020010151858481518110610a0957610a08613555565b5b6020026020010151858581518110610a2457610a23613555565b5b6020026020010151611724565b8080610a3c90613584565b915050610909565b5050505050565b610a78604051602001610a5d9061349e565b60405160208183030381529060405280519060200120610c84565b610a8282826117ac565b5050565b610ab3604051602001610a9890613618565b60405160208183030381529060405280519060200120610c84565b610abd828261181c565b5050565b6000806000806000610ad1611982565b600c0160008873ffffffffffffffffffffffffffffffffffffffff1673ffffffffffffffffffffffffffffffffffffffff168152602001908152602001600020600087815260200190815260200160002060000160009054906101000a900473ffffffffffffffffffffffffffffffffffffffff1690506000610b52611982565b600c0160008973ffffffffffffffffffffffffffffffffffffffff1673ffffffffffffffffffffffffffffffffffffffff16815260200190815260200160002060008881526020019081526020016000206001015490506000610bb3611982565b600c0160008a73ffffffffffffffffffffffffffffffffffffffff1673ffffffffffffffffffffffffffffffffffffffff16815260200190815260200160002060008981526020019081526020016000206002015490506000610c14611982565b600c0160008b73ffffffffffffffffffffffffffffffffffffffff1673ffffffffffffffffffffffffffffffffffffffff16815260200190815260200160002060008a81526020019081526020016000206003015490508383838397509750975097505050505092959194509250565b610c8d816119af565b50565b6001610c9a611982565b60090160008373ffffffffffffffffffffffffffffffffffffffff1673ffffffffffffffffffffffffffffffffffffffff16815260200190815260200160002060006101000a81548160ff02191690831515021790555050565b6000610cfe611982565b60040160008373ffffffffffffffffffffffffffffffffffffffff1673ffffffffffffffffffffffffffffffffffffffff16815260200190815260200160002060009054906101000a900461ffff169050919050565b60008111610d8e576040517f7c946ed700000000000000000000000000000000000000000000000000000000815260040160405180910390fd5b50565b80610d9a611982565b6007018190555050565b80610dad611982565b600e0160003373ffffffffffffffffffffffffffffffffffffffff1673ffffffffffffffffffffffffffffffffffffffff16815260200190815260200160002060008473ffffffffffffffffffffffffffffffffffffffff1673ffffffffffffffffffffffffffffffffffffffff168152602001908152602001600020541015610e63576040517f96d8043300000000000000000000000000000000000000000000000000000000815260040160405180910390fd5b80610e6c611982565b600e0160003373ffffffffffffffffffffffffffffffffffffffff1673ffffffffffffffffffffffffffffffffffffffff16815260200190815260200160002060008473ffffffffffffffffffffffffffffffffffffffff1673ffffffffffffffffffffffffffffffffffffffff1681526020019081526020016000206000828254610ef891906134ed565b9250508190555080610f08611982565b600f0160008473ffffffffffffffffffffffffffffffffffffffff1673ffffffffffffffffffffffffffffffffffffffff1681526020019081526020016000206000828254610f5791906134ed565b925050819055508173ffffffffffffffffffffffffffffffffffffffff1663a9059cbb33836040518363ffffffff1660e01b8152600401610f99929190613638565b6020604051808303816000875af1158015610fb8573d6000803e3d6000fd5b505050506040513d601f19601f82011682018060405250810190610fdc919061368d565b505050565b610fea8161147c565b611020576040517f334ae3e600000000000000000000000000000000000000000000000000000000815260040160405180910390fd5b50565b8173ffffffffffffffffffffffffffffffffffffffff166323b872dd3330846040518463ffffffff1660e01b8152600401611060939291906136ba565b6020604051808303816000875af115801561107f573d6000803e3d6000fd5b505050506040513d601f19601f820116820180604052508101906110a3919061368d565b50806110ad611982565b600e0160003373ffffffffffffffffffffffffffffffffffffffff1673ffffffffffffffffffffffffffffffffffffffff16815260200190815260200160002060008473ffffffffffffffffffffffffffffffffffffffff1673ffffffffffffffffffffffffffffffffffffffff16815260200190815260200160002060008282546111399190613521565b9250508190555080611149611982565b600f0160008473ffffffffffffffffffffffffffffffffffffffff1673ffffffffffffffffffffffffffffffffffffffff16815260200190815260200160002060008282546111989190613521565b925050819055505050565b806111ac611982565b6008018190555050565b60008083905060006111e7848373ffffffffffffffffffffffffffffffffffffffff166119bc90919063ffffffff16565b90506000611214308473ffffffffffffffffffffffffffffffffffffffff16611a5090919063ffffffff16565b905061121e611982565b60080154858261122e91906136f1565b6bffffffffffffffffffffffff166112469190613755565b826112519190613521565b935050505092915050565b80611265611982565b6006018190555050565b6000611279611982565b60060154905090565b6000806000806112a585611294611982565b600001611ae490919063ffffffff16565b9050806000015181602001518260400151935093509350509193909250565b6112cc611982565b60050160009054906101000a900460ff16156112e6611982565b60050160006101000a81548160ff021916908315150217905550565b600061130c611462565b905060005b8181101561137e57600061134b6001611328611462565b61133291906134ed565b61133a611982565b600001611bb090919063ffffffff16565b905061136a81611359611982565b600001611bdb90919063ffffffff16565b50808061137690613584565b915050611311565b5050565b600061138c611982565b60080154905090565b600061139f611982565b600b0160008373ffffffffffffffffffffffffffffffffffffffff1673ffffffffffffffffffffffffffffffffffffffff168152602001908152602001600020549050919050565b6113ef611982565b60090160008273ffffffffffffffffffffffffffffffffffffffff1673ffffffffffffffffffffffffffffffffffffffff16815260200190815260200160002060006101000a81549060ff021916905550565b600061144c611982565b60050160009054906101000a900460ff16905090565b600061147761146f611982565b600001611d74565b905090565b6000611486611982565b60090160008373ffffffffffffffffffffffffffffffffffffffff1673ffffffffffffffffffffffffffffffffffffffff16815260200190815260200160002060009054906101000a900460ff169050919050565b6114e782826001611d85565b6114ef611982565b600d0160008373ffffffffffffffffffffffffffffffffffffffff1673ffffffffffffffffffffffffffffffffffffffff168152602001908152602001600020600082825461153e9190613521565b925050819055505050565b6000611553611982565b600f0160008373ffffffffffffffffffffffffffffffffffffffff1673ffffffffffffffffffffffffffffffffffffffff168152602001908152602001600020549050919050565b60006115a5611982565b600e0160008473ffffffffffffffffffffffffffffffffffffffff1673ffffffffffffffffffffffffffffffffffffffff16815260200190815260200160002060008373ffffffffffffffffffffffffffffffffffffffff1673ffffffffffffffffffffffffffffffffffffffff16815260200190815260200160002054905092915050565b6000808373ffffffffffffffffffffffffffffffffffffffff166370a08231306040518263ffffffff1660e01b81526004016116679190613797565b602060405180830381865afa158015611684573d6000803e3d6000fd5b505050506040513d601f19601f820116820180604052508101906116a891906137c7565b90506116b484846111b6565b811191505092915050565b60006116c9611982565b600d0160008373ffffffffffffffffffffffffffffffffffffffff1673ffffffffffffffffffffffffffffffffffffffff168152602001908152602001600020549050919050565b600061171b611982565b60070154905090565b61172d84611e8b565b826bffffffffffffffffffffffff16826bffffffffffffffffffffffff161015611783576040517f2245023300000000000000000000000000000000000000000000000000000000815260040160405180910390fd5b6117a681858585611792611982565b600001611ee490949392919063ffffffff16565b50505050565b6117b582611e8b565b816117be611982565b60040160008373ffffffffffffffffffffffffffffffffffffffff1673ffffffffffffffffffffffffffffffffffffffff16815260200190815260200160002060006101000a81548161ffff021916908361ffff1602179055505050565b80611825611982565b600d0160008473ffffffffffffffffffffffffffffffffffffffff1673ffffffffffffffffffffffffffffffffffffffff16815260200190815260200160002054101561189e576040517ff00d49ea00000000000000000000000000000000000000000000000000000000815260040160405180910390fd5b806118a7611982565b600d0160008473ffffffffffffffffffffffffffffffffffffffff1673ffffffffffffffffffffffffffffffffffffffff16815260200190815260200160002060008282546118f691906134ed565b925050819055508173ffffffffffffffffffffffffffffffffffffffff166323b872dd3033846040518463ffffffff1660e01b815260040161193a939291906136ba565b6020604051808303816000875af1158015611959573d6000803e3d6000fd5b505050506040513d601f19601f8201168201806040525081019061197d919061368d565b505050565b6000807f2f7ed27098ecefe70183ee38ae4542dee65215b0786f6870871034402cfe2cc990508091505090565b6119b98133612115565b50565b6000806119c8846121b2565b9150508073ffffffffffffffffffffffffffffffffffffffff16638d997f6e85856040518363ffffffff1660e01b8152600401611a06929190613862565b602060405180830381865afa158015611a23573d6000803e3d6000fd5b505050506040513d601f19601f82011682018060405250810190611a4791906137c7565b91505092915050565b600080611a5c846121b2565b9150508073ffffffffffffffffffffffffffffffffffffffff1663e8e7e2d185856040518363ffffffff1660e01b8152600401611a9a92919061388b565b602060405180830381865afa158015611ab7573d6000803e3d6000fd5b505050506040513d601f19601f82011682018060405250810190611adb91906138c9565b91505092915050565b611aec612c2d565b8260010160008381526020019081526020016000206040518060600160405290816000820160009054906101000a900461ffff1661ffff1661ffff1681526020016000820160029054906101000a90046bffffffffffffffffffffffff166bffffffffffffffffffffffff166bffffffffffffffffffffffff16815260200160008201600e9054906101000a90046bffffffffffffffffffffffff166bffffffffffffffffffffffff166bffffffffffffffffffffffff1681525050905092915050565b6000826000018281548110611bc857611bc7613555565b5b9060005260206000200154905092915050565b81600301600082815260200190815260200160002060009054906101000a900460ff1615611d705781600301600082815260200190815260200160002060006101000a81549060ff0219169055816001016000828152602001908152602001600020600080820160006101000a81549061ffff02191690556000820160026101000a8154906bffffffffffffffffffffffff021916905560008201600e6101000a8154906bffffffffffffffffffffffff021916905550506000826002016000838152602001908152602001600020549050600060018460000180549050611cc391906134ed565b90506000846000018281548110611cdd57611cdc613555565b5b9060005260206000200154905082856002016000838152602001908152602001600020819055508460020160008581526020019081526020016000206000905580856000018481548110611d3457611d33613555565b5b906000526020600020018190555084600001805480611d5657611d556138f6565b5b600190038181906000526020600020016000905590555050505b5050565b600081600001805490509050919050565b600080611d90611982565b9050600081600a0160008673ffffffffffffffffffffffffffffffffffffffff1673ffffffffffffffffffffffffffffffffffffffff168152602001908152602001600020549050600080600090505b87811015611e7d57611dfd878285611df89190613521565b6123f3565b82611e089190613521565b91508515611e6a57600184600a0160008973ffffffffffffffffffffffffffffffffffffffff1673ffffffffffffffffffffffffffffffffffffffff1681526020019081526020016000206000828254611e629190613521565b925050819055505b8080611e7590613584565b915050611de0565b508093505050509392505050565b606460ff168161ffff161080611eaa575061271061ffff168161ffff16115b15611ee1576040517f800c7e9100000000000000000000000000000000000000000000000000000000815260040160405180910390fd5b50565b84600301600085815260200190815260200160002060009054906101000a900460ff1615611fd2578285600101600086815260200190815260200160002060000160006101000a81548161ffff021916908361ffff1602179055508185600101600086815260200190815260200160002060000160026101000a8154816bffffffffffffffffffffffff02191690836bffffffffffffffffffffffff16021790555080856001016000868152602001908152602001600020600001600e6101000a8154816bffffffffffffffffffffffff02191690836bffffffffffffffffffffffff16021790555061210e565b600185600301600086815260200190815260200160002060006101000a81548160ff0219169083151502179055508285600101600086815260200190815260200160002060000160006101000a81548161ffff021916908361ffff1602179055508185600101600086815260200190815260200160002060000160026101000a8154816bffffffffffffffffffffffff02191690836bffffffffffffffffffffffff16021790555080856001016000868152602001908152602001600020600001600e6101000a8154816bffffffffffffffffffffffff02191690836bffffffffffffffffffffffff160217905550846000018054905085600201600086815260200190815260200160002081905550846000018490806001815401808255809150506001900390600052602060002001600090919091909150555b5050505050565b61211f828261257a565b6121ae576121448173ffffffffffffffffffffffffffffffffffffffff1660146125ee565b6121528360001c60206125ee565b604051602001612163929190613a2e565b6040516020818303038152906040526040517f08c379a00000000000000000000000000000000000000000000000000000000081526004016121a59190613aa1565b60405180910390fd5b5050565b6000807f65599bf746e17a00ea62e3610586992d88101b78eec3cf380706621fb97ea8375491507fb969d79d88acd02d04ed7ee7d43b949e7daf093d363abcfbbc43dfdfd1ce969a549050600073ffffffffffffffffffffffffffffffffffffffff168173ffffffffffffffffffffffffffffffffffffffff160361237457600073ffffffffffffffffffffffffffffffffffffffff168273ffffffffffffffffffffffffffffffffffffffff16036122d7578273ffffffffffffffffffffffffffffffffffffffff166320bc44256040518163ffffffff1660e01b8152600401602060405180830381865afa1580156122b0573d6000803e3d6000fd5b505050506040513d601f19601f820116820180604052508101906122d49190613ad8565b91505b8173ffffffffffffffffffffffffffffffffffffffff1663b6d200de7fa9214cc96615e0085d3bb077758db69497dc2dce3b2b1e97bc93c3d18d83efd36040518263ffffffff1660e01b81526004016123309190613b57565b602060405180830381865afa15801561234d573d6000803e3d6000fd5b505050506040513d601f19601f820116820180604052508101906123719190613bb0565b90505b600073ffffffffffffffffffffffffffffffffffffffff168273ffffffffffffffffffffffffffffffffffffffff16036123b1576123b0613bdd565b5b600073ffffffffffffffffffffffffffffffffffffffff168173ffffffffffffffffffffffffffffffffffffffff16036123ee576123ed613bdd565b5b915091565b6000806123fe611982565b9050600081600c0160008673ffffffffffffffffffffffffffffffffffffffff1673ffffffffffffffffffffffffffffffffffffffff1681526020019081526020016000206000858152602001908152602001600020600201549050600082600c0160008773ffffffffffffffffffffffffffffffffffffffff1673ffffffffffffffffffffffffffffffffffffffff168152602001908152602001600020600086815260200190815260200160002060030154905060008060006124c3898961282a565b93505092509250600083836124d89190613c0c565b6bffffffffffffffffffffffff169050600085146125155785856124fc91906134ed565b816125079190613755565b975050505050505050612574565b6000821461254257858261252991906134ed565b816125349190613755565b975050505050505050612574565b6040517fae1c061f00000000000000000000000000000000000000000000000000000000815260040160405180910390fd5b92915050565b600061258461292f565b600001600084815260200190815260200160002060000160008373ffffffffffffffffffffffffffffffffffffffff1673ffffffffffffffffffffffffffffffffffffffff16815260200190815260200160002060009054906101000a900460ff16905092915050565b6060600060028360026126019190613755565b61260b9190613521565b67ffffffffffffffff81111561262457612623613009565b5b6040519080825280601f01601f1916602001820160405280156126565781602001600182028036833780820191505090505b5090507f30000000000000000000000000000000000000000000000000000000000000008160008151811061268e5761268d613555565b5b60200101907effffffffffffffffffffffffffffffffffffffffffffffffffffffffffffff1916908160001a9053507f7800000000000000000000000000000000000000000000000000000000000000816001815181106126f2576126f1613555565b5b60200101907effffffffffffffffffffffffffffffffffffffffffffffffffffffffffffff1916908160001a905350600060018460026127329190613755565b61273c9190613521565b90505b60018111156127dc577f3031323334353637383961626364656600000000000000000000000000000000600f86166010811061277e5761277d613555565b5b1a60f81b82828151811061279557612794613555565b5b60200101907effffffffffffffffffffffffffffffffffffffffffffffffffffffffffffff1916908160001a905350600485901c9450806127d590613c4c565b905061273f565b5060008414612820576040517f08c379a000000000000000000000000000000000000000000000000000000000815260040161281790613cc1565b60405180910390fd5b8091505092915050565b600080600080600061283a611982565b9050600081600c0160008973ffffffffffffffffffffffffffffffffffffffff1673ffffffffffffffffffffffffffffffffffffffff168152602001908152602001600020600088815260200190815260200160002060000160009054906101000a900473ffffffffffffffffffffffffffffffffffffffff169050600082600c0160008a73ffffffffffffffffffffffffffffffffffffffff1673ffffffffffffffffffffffffffffffffffffffff168152602001908152602001600020600089815260200190815260200160002060010154905061291b828a8361295c565b965096509650965050505092959194509250565b6000807f4cd15452b25e815d3f9d1a3c7edd985a178edf5eb3461a1acbf855517423d69490508091505090565b60008060008061296a612c00565b60010160008873ffffffffffffffffffffffffffffffffffffffff1673ffffffffffffffffffffffffffffffffffffffff16815260200190815260200160002060008773ffffffffffffffffffffffffffffffffffffffff1673ffffffffffffffffffffffffffffffffffffffff168152602001908152602001600020600086815260200190815260200160002060000160009054906101000a9004600b0b612a11612c00565b60010160008973ffffffffffffffffffffffffffffffffffffffff1673ffffffffffffffffffffffffffffffffffffffff16815260200190815260200160002060008873ffffffffffffffffffffffffffffffffffffffff1673ffffffffffffffffffffffffffffffffffffffff1681526020019081526020016000206000878152602001908152602001600020600001600c9054906101000a90046bffffffffffffffffffffffff16612ac3612c00565b60010160008a73ffffffffffffffffffffffffffffffffffffffff1673ffffffffffffffffffffffffffffffffffffffff16815260200190815260200160002060008973ffffffffffffffffffffffffffffffffffffffff1673ffffffffffffffffffffffffffffffffffffffff168152602001908152602001600020600088815260200190815260200160002060010154612b5d612c00565b60010160008b73ffffffffffffffffffffffffffffffffffffffff1673ffffffffffffffffffffffffffffffffffffffff16815260200190815260200160002060008a73ffffffffffffffffffffffffffffffffffffffff1673ffffffffffffffffffffffffffffffffffffffff168152602001908152602001600020600089815260200190815260200160002060020154935093509350935093509350935093565b6000807f9cd9afe22fea86221d6e8117226b65bb0e2af8c4f5b8abf255fb0afcad4a3a9c90508091505090565b6040518060600160405280600061ffff16815260200160006bffffffffffffffffffffffff16815260200160006bffffffffffffffffffffffff1681525090565b6000604051905090565b600080fd5b600080fd5b600073ffffffffffffffffffffffffffffffffffffffff82169050919050565b6000612cad82612c82565b9050919050565b612cbd81612ca2565b8114612cc857600080fd5b50565b600081359050612cda81612cb4565b92915050565b6000819050919050565b612cf381612ce0565b8114612cfe57600080fd5b50565b600081359050612d1081612cea565b92915050565b60008060408385031215612d2d57612d2c612c78565b5b6000612d3b85828601612ccb565b9250506020612d4c85828601612d01565b9150509250929050565b612d5f81612ca2565b82525050565b612d6e81612ce0565b82525050565b6000608082019050612d896000830187612d56565b612d966020830186612d65565b612da36040830185612d65565b612db06060830184612d65565b95945050505050565b600060208284031215612dcf57612dce612c78565b5b6000612ddd84828501612ccb565b91505092915050565b600061ffff82169050919050565b612dfd81612de6565b82525050565b6000602082019050612e186000830184612df4565b92915050565b600060208284031215612e3457612e33612c78565b5b6000612e4284828501612d01565b91505092915050565b600081600b0b9050919050565b612e6181612e4b565b8114612e6c57600080fd5b50565b600081359050612e7e81612e58565b92915050565b60008060408385031215612e9b57612e9a612c78565b5b6000612ea985828601612ccb565b9250506020612eba85828601612e6f565b9150509250929050565b6000602082019050612ed96000830184612d65565b92915050565b60006bffffffffffffffffffffffff82169050919050565b612f0081612edf565b82525050565b6000606082019050612f1b6000830186612df4565b612f286020830185612ef7565b612f356040830184612ef7565b949350505050565b60008115159050919050565b612f5281612f3d565b82525050565b6000602082019050612f6d6000830184612f49565b92915050565b60008060408385031215612f8a57612f89612c78565b5b6000612f9885828601612d01565b9250506020612fa985828601612ccb565b9150509250929050565b60008060408385031215612fca57612fc9612c78565b5b6000612fd885828601612ccb565b9250506020612fe985828601612ccb565b9150509250929050565b600080fd5b6000601f19601f8301169050919050565b7f4e487b7100000000000000000000000000000000000000000000000000000000600052604160045260246000fd5b61304182612ff8565b810181811067ffffffffffffffff821117156130605761305f613009565b5b80604052505050565b6000613073612c6e565b905061307f8282613038565b919050565b600067ffffffffffffffff82111561309f5761309e613009565b5b602082029050602081019050919050565b600080fd5b6130be81612de6565b81146130c957600080fd5b50565b6000813590506130db816130b5565b92915050565b60006130f46130ef84613084565b613069565b90508083825260208201905060208402830185811115613117576131166130b0565b5b835b81811015613140578061312c88826130cc565b845260208401935050602081019050613119565b5050509392505050565b600082601f83011261315f5761315e612ff3565b5b813561316f8482602086016130e1565b91505092915050565b600067ffffffffffffffff82111561319357613192613009565b5b602082029050602081019050919050565b6131ad81612edf565b81146131b857600080fd5b50565b6000813590506131ca816131a4565b92915050565b60006131e36131de84613178565b613069565b90508083825260208201905060208402830185811115613206576132056130b0565b5b835b8181101561322f578061321b88826131bb565b845260208401935050602081019050613208565b5050509392505050565b600082601f83011261324e5761324d612ff3565b5b813561325e8482602086016131d0565b91505092915050565b600067ffffffffffffffff82111561328257613281613009565b5b602082029050602081019050919050565b60006132a66132a184613267565b613069565b905080838252602082019050602084028301858111156132c9576132c86130b0565b5b835b818110156132f257806132de8882612d01565b8452602084019350506020810190506132cb565b5050509392505050565b600082601f83011261331157613310612ff3565b5b8135613321848260208601613293565b91505092915050565b6000806000806080858703121561334457613343612c78565b5b600085013567ffffffffffffffff81111561336257613361612c7d565b5b61336e8782880161314a565b945050602085013567ffffffffffffffff81111561338f5761338e612c7d565b5b61339b87828801613239565b935050604085013567ffffffffffffffff8111156133bc576133bb612c7d565b5b6133c887828801613239565b925050606085013567ffffffffffffffff8111156133e9576133e8612c7d565b5b6133f5878288016132fc565b91505092959194509250565b6000806040838503121561341857613417612c78565b5b6000613426858286016130cc565b925050602061343785828601612ccb565b9150509250929050565b600082825260208201905092915050565b7f535452415445474953545f524f4c450000000000000000000000000000000000600082015250565b6000613488600f83613441565b915061349382613452565b602082019050919050565b600060208201905081810360008301526134b78161347b565b9050919050565b7f4e487b7100000000000000000000000000000000000000000000000000000000600052601160045260246000fd5b60006134f882612ce0565b915061350383612ce0565b925082820390508181111561351b5761351a6134be565b5b92915050565b600061352c82612ce0565b915061353783612ce0565b925082820190508082111561354f5761354e6134be565b5b92915050565b7f4e487b7100000000000000000000000000000000000000000000000000000000600052603260045260246000fd5b600061358f82612ce0565b91507fffffffffffffffffffffffffffffffffffffffffffffffffffffffffffffffff82036135c1576135c06134be565b5b600182019050919050565b7f5452454153555245525f524f4c45000000000000000000000000000000000000600082015250565b6000613602600e83613441565b915061360d826135cc565b602082019050919050565b60006020820190508181036000830152613631816135f5565b9050919050565b600060408201905061364d6000830185612d56565b61365a6020830184612d65565b9392505050565b61366a81612f3d565b811461367557600080fd5b50565b60008151905061368781613661565b92915050565b6000602082840312156136a3576136a2612c78565b5b60006136b184828501613678565b91505092915050565b60006060820190506136cf6000830186612d56565b6136dc6020830185612d56565b6136e96040830184612d65565b949350505050565b60006136fc82612e4b565b915061370783612e4b565b925082820190507fffffffffffffffffffffffffffffffffffffffff80000000000000000000000081126b7fffffffffffffffffffffff8213171561374f5761374e6134be565b5b92915050565b600061376082612ce0565b915061376b83612ce0565b925082820261377981612ce0565b915082820484148315176137905761378f6134be565b5b5092915050565b60006020820190506137ac6000830184612d56565b92915050565b6000815190506137c181612cea565b92915050565b6000602082840312156137dd576137dc612c78565b5b60006137eb848285016137b2565b91505092915050565b6000819050919050565b600061381961381461380f84612c82565b6137f4565b612c82565b9050919050565b600061382b826137fe565b9050919050565b600061383d82613820565b9050919050565b61384d81613832565b82525050565b61385c81612e4b565b82525050565b60006040820190506138776000830185613844565b6138846020830184613853565b9392505050565b60006040820190506138a06000830185613844565b6138ad6020830184612d56565b9392505050565b6000815190506138c381612e58565b92915050565b6000602082840312156138df576138de612c78565b5b60006138ed848285016138b4565b91505092915050565b7f4e487b7100000000000000000000000000000000000000000000000000000000600052603160045260246000fd5b600081905092915050565b7f416363657373436f6e74726f6c3a206163636f756e7420000000000000000000600082015250565b6000613966601783613925565b915061397182613930565b601782019050919050565b600081519050919050565b60005b838110156139a557808201518184015260208101905061398a565b60008484015250505050565b60006139bc8261397c565b6139c68185613925565b93506139d6818560208601613987565b80840191505092915050565b7f206973206d697373696e6720726f6c6520000000000000000000000000000000600082015250565b6000613a18601183613925565b9150613a23826139e2565b601182019050919050565b6000613a3982613959565b9150613a4582856139b1565b9150613a5082613a0b565b9150613a5c82846139b1565b91508190509392505050565b6000613a738261397c565b613a7d8185613441565b9350613a8d818560208601613987565b613a9681612ff8565b840191505092915050565b60006020820190508181036000830152613abb8184613a68565b905092915050565b600081519050613ad281612cb4565b92915050565b600060208284031215613aee57613aed612c78565b5b6000613afc84828501613ac3565b91505092915050565b6000819050919050565b6000819050919050565b60008160001b9050919050565b6000613b41613b3c613b3784613b05565b613b19565b613b0f565b9050919050565b613b5181613b26565b82525050565b6000602082019050613b6c6000830184613b48565b92915050565b6000613b7d82612ca2565b9050919050565b613b8d81613b72565b8114613b9857600080fd5b50565b600081519050613baa81613b84565b92915050565b600060208284031215613bc657613bc5612c78565b5b6000613bd484828501613b9b565b91505092915050565b7f4e487b7100000000000000000000000000000000000000000000000000000000600052600160045260246000fd5b6000613c1782612edf565b9150613c2283612edf565b925082820390506bffffffffffffffffffffffff811115613c4657613c456134be565b5b92915050565b6000613c5782612ce0565b915060008203613c6a57613c696134be565b5b600182039050919050565b7f537472696e67733a20686578206c656e67746820696e73756666696369656e74600082015250565b6000613cab602083613441565b9150613cb682613c75565b602082019050919050565b60006020820190508181036000830152613cda81613c9e565b905091905056fea2646970667358221220c4e7572168b3d5831e83e3433ea938199032c5ffc0e0ea577795da4ca37ccd8364736f6c63430008120033",
  "linkReferences": {},
  "deployedLinkReferences": {}
}